{
  "address": "0xe9b5D61aAC0fda1d8a5166A1d36204E02E7ab982",
  "abi": [
    {
      "inputs": [
        {
          "internalType": "address",
          "name": "_claimAssessor",
          "type": "address"
        }
      ],
      "stateMutability": "nonpayable",
      "type": "constructor"
    },
    {
      "anonymous": false,
      "inputs": [
        {
          "indexed": true,
          "internalType": "address",
          "name": "cohort",
          "type": "address"
        },
        {
          "indexed": true,
          "internalType": "address",
          "name": "owner",
          "type": "address"
        }
      ],
      "name": "CohortCreated",
      "type": "event"
    },
    {
      "anonymous": false,
      "inputs": [
        {
          "indexed": true,
          "internalType": "address",
          "name": "previousOwner",
          "type": "address"
        },
        {
          "indexed": true,
          "internalType": "address",
          "name": "newOwner",
          "type": "address"
        }
      ],
      "name": "OwnershipTransferred",
      "type": "event"
    },
    {
      "inputs": [
        {
          "internalType": "address",
          "name": "_creator",
          "type": "address"
        }
      ],
      "name": "addCohortCreator",
      "outputs": [],
      "stateMutability": "nonpayable",
      "type": "function"
    },
    {
      "inputs": [],
      "name": "claimAssessor",
      "outputs": [
        {
          "internalType": "address",
          "name": "",
          "type": "address"
        }
      ],
      "stateMutability": "view",
      "type": "function"
    },
    {
      "inputs": [],
      "name": "cohortCreateFee",
      "outputs": [
        {
          "internalType": "uint256",
          "name": "",
          "type": "uint256"
        }
      ],
      "stateMutability": "view",
      "type": "function"
    },
    {
      "inputs": [
        {
          "internalType": "uint256",
          "name": "",
          "type": "uint256"
        }
      ],
      "name": "cohortCreators",
      "outputs": [
        {
          "internalType": "address",
          "name": "",
          "type": "address"
        }
      ],
      "stateMutability": "view",
      "type": "function"
    },
    {
      "inputs": [],
      "name": "cohortCreatorsLength",
      "outputs": [
        {
          "internalType": "uint256",
          "name": "",
          "type": "uint256"
        }
      ],
      "stateMutability": "view",
      "type": "function"
    },
    {
      "inputs": [
        {
          "internalType": "address",
          "name": "_cohortFactory",
          "type": "address"
        },
        {
          "internalType": "string",
          "name": "_name",
          "type": "string"
        },
        {
          "internalType": "uint256",
          "name": "_cohortStartCapital",
          "type": "uint256"
        },
        {
          "internalType": "address",
          "name": "_premiumFactory",
          "type": "address"
        },
        {
          "internalType": "address",
          "name": "_premiumCurrency",
          "type": "address"
        },
        {
          "internalType": "uint256",
          "name": "_minPremium",
          "type": "uint256"
        }
      ],
      "name": "createCohort",
      "outputs": [
        {
          "internalType": "address",
          "name": "cohort",
          "type": "address"
        }
      ],
      "stateMutability": "payable",
      "type": "function"
    },
    {
      "inputs": [
        {
          "internalType": "address",
          "name": "_creator",
          "type": "address"
        }
      ],
      "name": "isCohortCreator",
      "outputs": [
        {
          "internalType": "bool",
          "name": "",
          "type": "bool"
        }
      ],
      "stateMutability": "view",
      "type": "function"
    },
    {
      "inputs": [],
      "name": "owner",
      "outputs": [
        {
          "internalType": "address",
          "name": "",
          "type": "address"
        }
      ],
      "stateMutability": "view",
      "type": "function"
    },
    {
      "inputs": [],
      "name": "renounceOwnership",
      "outputs": [],
      "stateMutability": "nonpayable",
      "type": "function"
    },
    {
      "inputs": [
        {
          "internalType": "uint256",
          "name": "_fee",
          "type": "uint256"
        }
      ],
      "name": "setCohortCreationFee",
      "outputs": [],
      "stateMutability": "nonpayable",
      "type": "function"
    },
    {
      "inputs": [
        {
          "internalType": "address",
          "name": "newOwner",
          "type": "address"
        }
      ],
      "name": "transferOwnership",
      "outputs": [],
      "stateMutability": "nonpayable",
      "type": "function"
    },
    {
      "inputs": [
        {
          "internalType": "address",
          "name": "_to",
          "type": "address"
        }
      ],
      "name": "withdrawCreateFee",
      "outputs": [],
      "stateMutability": "nonpayable",
      "type": "function"
    }
  ],
  "transactionHash": "0x890a4d8daebeaef51dd366dee9f64a7a8f1e2d0d3493d8a39b190c2bc288bb7c",
  "args": [
    "0x5148E4E836F58543e1b4eEc5f0fc20FdD6ebF524"
  ],
  "solcInputHash": "64c46f0685868c404996b7e458652ed6",
  "bytecode": "0x608060405234801561001057600080fd5b50604051610d80380380610d8083398101604081905261002f916100e7565b61003f61003a610093565b610097565b6001600160a01b03811661006e5760405162461bcd60e51b815260040161006590610115565b60405180910390fd5b600180546001600160a01b0319166001600160a01b039290921691909117905561014c565b3390565b600080546001600160a01b038381166001600160a01b0319831681178455604051919092169283917f8be0079c531659141344cd1fd0a4f28419497f9722a3daafe3b4186f6b6457e09190a35050565b6000602082840312156100f8578081fd5b81516001600160a01b038116811461010e578182fd5b9392505050565b60208082526013908201527f556e6f52653a205a45524f5f4144445245535300000000000000000000000000604082015260600190565b610c258061015b6000396000f3fe6080604052600436106100c75760003560e01c80639fba341f11610074578063f17a87081161004e578063f17a8708146101e5578063f2fde38b146101fa578063f43dfbb71461021a576100c7565b80639fba341f1461019d578063ba69971f146101bd578063c6e89915146101d0576100c7565b80637565cac0116100a55780637565cac014610139578063779324ca146101665780638da5cb5b14610188576100c7565b806310b8f7a1146100cc5780636545cb14146100ee578063715018a614610124575b600080fd5b3480156100d857600080fd5b506100ec6100e73660046108f1565b61023a565b005b3480156100fa57600080fd5b5061010e6101093660046108f1565b610287565b60405161011b9190610925565b60405180910390f35b34801561013057600080fd5b506100ec6102b1565b34801561014557600080fd5b506101596101543660046107ca565b6102fc565b60405161011b91906109a5565b34801561017257600080fd5b5061017b6103a4565b60405161011b9190610b64565b34801561019457600080fd5b5061010e6103aa565b3480156101a957600080fd5b506100ec6101b83660046107ca565b6103b9565b61010e6101cb366004610809565b61047d565b3480156101dc57600080fd5b5061010e6105fd565b3480156101f157600080fd5b5061017b61060c565b34801561020657600080fd5b506100ec6102153660046107ca565b610612565b34801561022657600080fd5b506100ec6102353660046107ca565b610683565b6102426106cc565b6001600160a01b03166102536103aa565b6001600160a01b0316146102825760405162461bcd60e51b815260040161027990610a8a565b60405180910390fd5b600355565b6002818154811061029757600080fd5b6000918252602090912001546001600160a01b0316905081565b6102b96106cc565b6001600160a01b03166102ca6103aa565b6001600160a01b0316146102f05760405162461bcd60e51b815260040161027990610a8a565b6102fa60006106d0565b565b6000816001600160a01b03166103106103aa565b6001600160a01b031614156103275750600161039f565b60025460005b8181101561039857836001600160a01b03166002828154811061036057634e487b7160e01b600052603260045260246000fd5b6000918252602090912001546001600160a01b031614156103865760019250505061039f565b8061039081610b9d565b91505061032d565b5060009150505b919050565b60035481565b6000546001600160a01b031690565b6103c16106cc565b6001600160a01b03166103d26103aa565b6001600160a01b0316146103f85760405162461bcd60e51b815260040161027990610a8a565b610401816102fc565b1561041e5760405162461bcd60e51b8152600401610279906109b0565b600280546001810182556000919091527f405787fa12a823e0f2b7631cc41b3ba8828b3321ca811111fa75cd3aa3bb5ace01805473ffffffffffffffffffffffffffffffffffffffff19166001600160a01b0392909216919091179055565b6000610488336102fc565b6104a45760405162461bcd60e51b815260040161027990610af6565b336104ad6103aa565b6001600160a01b031614806104c3575060035434145b6104df5760405162461bcd60e51b815260040161027990610abf565b6001600160a01b0384166105055760405162461bcd60e51b815260040161027990610b2d565b6001600160a01b03831661052b5760405162461bcd60e51b815260040161027990610b2d565b600154604051632e8ccbe960e21b81526001600160a01b03808a169263ba332fa4926105689233928c929116908b908b908b908b90600401610939565b602060405180830381600087803b15801561058257600080fd5b505af1158015610596573d6000803e3d6000fd5b505050506040513d601f19601f820116820180604052508101906105ba91906107ed565b60405190915033906001600160a01b038316907fa1f0bb63ca643e76f1e145f8aa769d29d169b2964c8b1e3b0f9807b334ed0cfb90600090a39695505050505050565b6001546001600160a01b031681565b60025490565b61061a6106cc565b6001600160a01b031661062b6103aa565b6001600160a01b0316146106515760405162461bcd60e51b815260040161027990610a8a565b6001600160a01b0381166106775760405162461bcd60e51b8152600401610279906109e7565b610680816106d0565b50565b61068b6106cc565b6001600160a01b031661069c6103aa565b6001600160a01b0316146106c25760405162461bcd60e51b815260040161027990610a8a565b610680814761072d565b3390565b600080546001600160a01b0383811673ffffffffffffffffffffffffffffffffffffffff19831681178455604051919092169283917f8be0079c531659141344cd1fd0a4f28419497f9722a3daafe3b4186f6b6457e09190a35050565b604080516000808252602082019092526001600160a01b0384169083906040516107579190610909565b60006040518083038185875af1925050503d8060008114610794576040519150601f19603f3d011682016040523d82523d6000602084013e610799565b606091505b50509050806107ba5760405162461bcd60e51b815260040161027990610a2d565b505050565b803561039f81610bda565b6000602082840312156107db578081fd5b81356107e681610bda565b9392505050565b6000602082840312156107fe578081fd5b81516107e681610bda565b60008060008060008060c08789031215610821578182fd5b863561082c81610bda565b955060208781013567ffffffffffffffff80821115610849578485fd5b818a0191508a601f83011261085c578485fd5b81358181111561086e5761086e610bc4565b604051601f8201601f191681018501838111828210171561089157610891610bc4565b60405281815283820185018d10156108a7578687fd5b81858501868301379081019093018590525090955050604087013593506108d0606088016107bf565b92506108de608088016107bf565b915060a087013590509295509295509295565b600060208284031215610902578081fd5b5035919050565b6000825161091b818460208701610b6d565b9190910192915050565b6001600160a01b0391909116815260200190565b60006001600160a01b03808a16835260e0602084015288518060e085015261010061096a8282870160208e01610b6d565b988216604085015260608401979097529485166080830152509190921660a082015260c0810191909152601f909101601f1916010192915050565b901515815260200190565b60208082526019908201527f556e6f52653a20416c7265616479207265676973746572656400000000000000604082015260600190565b60208082526026908201527f4f776e61626c653a206e6577206f776e657220697320746865207a65726f206160408201526564647265737360d01b606082015260800190565b60208082526034908201527f5472616e7366657248656c7065723a3a736166655472616e736665724554483a60408201527f20455448207472616e73666572206661696c6564000000000000000000000000606082015260800190565b6020808252818101527f4f776e61626c653a2063616c6c6572206973206e6f7420746865206f776e6572604082015260600190565b6020808252601d908201527f556e6f52653a20496e636f7272656374206372656174696f6e20666565000000604082015260600190565b60208082526010908201527f556e6f52653a20466f7262696464656e00000000000000000000000000000000604082015260600190565b60208082526013908201527f556e6f52653a205a45524f5f4144445245535300000000000000000000000000604082015260600190565b90815260200190565b60005b83811015610b88578181015183820152602001610b70565b83811115610b97576000848401525b50505050565b6000600019821415610bbd57634e487b7160e01b81526011600452602481fd5b5060010190565b634e487b7160e01b600052604160045260246000fd5b6001600160a01b038116811461068057600080fdfea2646970667358221220e7503a72cd9969101595307a6256b224b70e192394cf74bb82ad9249bbf8488064736f6c63430008000033",
  "devdoc": {
    "kind": "dev",
    "methods": {
      "owner()": {
        "details": "Returns the address of the current owner."
      },
      "renounceOwnership()": {
        "details": "Leaves the contract without owner. It will not be possible to call `onlyOwner` functions anymore. Can only be called by the current owner. NOTE: Renouncing ownership will leave the contract without an owner, thereby removing any functionality that is only available to the owner."
      },
      "setCohortCreationFee(uint256)": {
        "details": "when setting fee, please consider ETH decimal(8)"
      },
      "transferOwnership(address)": {
        "details": "Transfers ownership of the contract to a new account (`newOwner`). Can only be called by the current owner."
      }
    },
    "version": 1
  },
  "userdoc": {
    "kind": "user",
    "methods": {},
    "version": 1
  },
  "storageLayout": {
    "storage": [
      {
        "astId": 7,
        "contract": "contracts/Actuary.sol:Actuary",
        "label": "_owner",
        "offset": 0,
        "slot": "0",
        "type": "t_address"
      },
      {
        "astId": 823,
        "contract": "contracts/Actuary.sol:Actuary",
        "label": "claimAssessor",
        "offset": 0,
        "slot": "1",
        "type": "t_address"
      },
      {
        "astId": 826,
        "contract": "contracts/Actuary.sol:Actuary",
        "label": "cohortCreators",
        "offset": 0,
        "slot": "2",
        "type": "t_array(t_address)dyn_storage"
      },
      {
        "astId": 828,
        "contract": "contracts/Actuary.sol:Actuary",
        "label": "cohortCreateFee",
        "offset": 0,
        "slot": "3",
        "type": "t_uint256"
      }
    ],
    "types": {
      "t_address": {
        "encoding": "inplace",
        "label": "address",
        "numberOfBytes": "20"
      },
      "t_array(t_address)dyn_storage": {
        "base": "t_address",
        "encoding": "dynamic_array",
        "label": "address[]",
        "numberOfBytes": "32"
      },
      "t_uint256": {
        "encoding": "inplace",
        "label": "uint256",
        "numberOfBytes": "32"
      }
    }
  }
}