{
  "address": "0x5148E4E836F58543e1b4eEc5f0fc20FdD6ebF524",
  "abi": [
    {
      "inputs": [],
      "stateMutability": "nonpayable",
      "type": "constructor"
    },
    {
      "anonymous": false,
      "inputs": [
        {
          "indexed": true,
          "internalType": "address",
          "name": "previousOwner",
          "type": "address"
        },
        {
          "indexed": true,
          "internalType": "address",
          "name": "newOwner",
          "type": "address"
        }
      ],
      "name": "OwnershipTransferred",
      "type": "event"
    },
    {
      "inputs": [],
      "name": "owner",
      "outputs": [
        {
          "internalType": "address",
          "name": "",
          "type": "address"
        }
      ],
      "stateMutability": "view",
      "type": "function"
    },
    {
      "inputs": [],
      "name": "renounceOwnership",
      "outputs": [],
      "stateMutability": "nonpayable",
      "type": "function"
    },
    {
      "inputs": [
        {
          "internalType": "address",
          "name": "_from",
          "type": "address"
        },
        {
          "internalType": "address",
          "name": "_cohort",
          "type": "address"
        },
        {
          "internalType": "uint256",
          "name": "_protocolIdx",
          "type": "uint256"
        },
        {
          "internalType": "uint256",
          "name": "_amount",
          "type": "uint256"
        }
      ],
      "name": "requestClaim",
      "outputs": [],
      "stateMutability": "nonpayable",
      "type": "function"
    },
    {
      "inputs": [
        {
          "internalType": "address",
          "name": "newOwner",
          "type": "address"
        }
      ],
      "name": "transferOwnership",
      "outputs": [],
      "stateMutability": "nonpayable",
      "type": "function"
    }
  ],
  "transactionHash": "0x48b16cb5c9d3ef5e636c1eabc2dd0906887891c130f7fe593a0eb03963e39280",
  "args": [],
  "solcInputHash": "19e0abe8682bfe9c8a283fc55415ca6e",
  "bytecode": "0x608060405234801561001057600080fd5b5061002161001c61002a565b61002e565b6001805561007e565b3390565b600080546001600160a01b038381166001600160a01b0319831681178455604051919092169283917f8be0079c531659141344cd1fd0a4f28419497f9722a3daafe3b4186f6b6457e09190a35050565b6104468061008d6000396000f3fe608060405234801561001057600080fd5b506004361061004c5760003560e01c8063715018a6146100515780638cbf54891461005b5780638da5cb5b1461006e578063f2fde38b1461008c575b600080fd5b61005961009f565b005b6100596100693660046102e4565b6100f3565b6100766101c6565b6040516100839190610325565b60405180910390f35b61005961009a3660046102c3565b6101d5565b6100a7610246565b6001600160a01b03166100b86101c6565b6001600160a01b0316146100e75760405162461bcd60e51b81526004016100de906103a4565b60405180910390fd5b6100f1600061024a565b565b6100fb610246565b6001600160a01b031661010c6101c6565b6001600160a01b0316146101325760405162461bcd60e51b81526004016100de906103a4565b600260015414156101555760405162461bcd60e51b81526004016100de906103d9565b600260015560405163051f663760e11b81526001600160a01b03841690630a3ecc6e9061018a90879086908690600401610339565b600060405180830381600087803b1580156101a457600080fd5b505af11580156101b8573d6000803e3d6000fd5b505060018055505050505050565b6000546001600160a01b031690565b6101dd610246565b6001600160a01b03166101ee6101c6565b6001600160a01b0316146102145760405162461bcd60e51b81526004016100de906103a4565b6001600160a01b03811661023a5760405162461bcd60e51b81526004016100de9061035e565b6102438161024a565b50565b3390565b600080546001600160a01b0383811673ffffffffffffffffffffffffffffffffffffffff19831681178455604051919092169283917f8be0079c531659141344cd1fd0a4f28419497f9722a3daafe3b4186f6b6457e09190a35050565b80356001600160a01b03811681146102be57600080fd5b919050565b6000602082840312156102d4578081fd5b6102dd826102a7565b9392505050565b600080600080608085870312156102f9578283fd5b610302856102a7565b9350610310602086016102a7565b93969395505050506040820135916060013590565b6001600160a01b0391909116815260200190565b6001600160a01b0393909316835261ffff919091166020830152604082015260600190565b60208082526026908201527f4f776e61626c653a206e6577206f776e657220697320746865207a65726f206160408201526564647265737360d01b606082015260800190565b6020808252818101527f4f776e61626c653a2063616c6c6572206973206e6f7420746865206f776e6572604082015260600190565b6020808252601f908201527f5265656e7472616e637947756172643a207265656e7472616e742063616c6c0060408201526060019056fea26469706673582212204a0d69576f9480666ad782f6de281beb139c7aae1e1f36282e9ed0244927f4b664736f6c63430008000033",
  "devdoc": {
    "kind": "dev",
    "methods": {
      "owner()": {
        "details": "Returns the address of the current owner."
      },
      "renounceOwnership()": {
        "details": "Leaves the contract without owner. It will not be possible to call `onlyOwner` functions anymore. Can only be called by the current owner. NOTE: Renouncing ownership will leave the contract without an owner, thereby removing any functionality that is only available to the owner."
      },
      "transferOwnership(address)": {
        "details": "Transfers ownership of the contract to a new account (`newOwner`). Can only be called by the current owner."
      }
    },
    "version": 1
  },
  "userdoc": {
    "kind": "user",
    "methods": {
      "constructor": {
        "notice": "This smart contract controls the claim request from claimants. After approving request, this function will be called manually by smart contract owner."
      }
    },
    "version": 1
  },
  "storageLayout": {
    "storage": [
      {
        "astId": 7,
        "contract": "contracts/ClaimAssessor.sol:ClaimAssessor",
        "label": "_owner",
        "offset": 0,
        "slot": "0",
        "type": "t_address"
      },
      {
        "astId": 114,
        "contract": "contracts/ClaimAssessor.sol:ClaimAssessor",
        "label": "_status",
        "offset": 0,
        "slot": "1",
        "type": "t_uint256"
      }
    ],
    "types": {
      "t_address": {
        "encoding": "inplace",
        "label": "address",
        "numberOfBytes": "20"
      },
      "t_uint256": {
        "encoding": "inplace",
        "label": "uint256",
        "numberOfBytes": "32"
      }
    }
  }
}