{
  "address": "0x40ce69993DbfB56F02C966cd2e9CD0196de7adA9",
  "abi": [
    {
      "inputs": [],
      "stateMutability": "nonpayable",
      "type": "constructor"
    },
    {
      "inputs": [
        {
          "internalType": "string",
          "name": "_name",
          "type": "string"
        },
        {
          "internalType": "string",
          "name": "_symbol",
          "type": "string"
        },
        {
          "internalType": "address",
          "name": "_cohort",
          "type": "address"
        },
        {
          "internalType": "address",
          "name": "_currency",
          "type": "address"
        },
        {
          "internalType": "uint256",
          "name": "_APR",
          "type": "uint256"
        },
        {
          "internalType": "uint256",
          "name": "_maxSize",
          "type": "uint256"
        }
      ],
      "name": "newRiskPool",
      "outputs": [
        {
          "internalType": "address",
          "name": "",
          "type": "address"
        }
      ],
      "stateMutability": "nonpayable",
      "type": "function"
    }
  ],
  "transactionHash": "0x99d989789c3ec395cf7d273e936cc1048b7c462546a80d5a998693286fa09772",
  "args": [],
  "solcInputHash": "92906b82aefef272824572e2c56a7bbd",
  "bytecode": "0x608060405234801561001057600080fd5b50612376806100206000396000f3fe608060405234801561001057600080fd5b506004361061002b5760003560e01c80634f35e6d514610030575b600080fd5b61004361003e36600461011c565b610059565b60405161005091906101e7565b60405180910390f35b6000808989898989898989604051610070906100ac565b6100819897969594939291906101fb565b604051809103906000f08015801561009d573d6000803e3d6000fd5b509a9950505050505050505050565b6120ed8061025483390190565b80356001600160a01b03811681146100d057600080fd5b919050565b60008083601f8401126100e6578182fd5b50813567ffffffffffffffff8111156100fd578182fd5b60208301915083602082850101111561011557600080fd5b9250929050565b60008060008060008060008060c0898b031215610137578384fd5b883567ffffffffffffffff8082111561014e578586fd5b61015a8c838d016100d5565b909a50985060208b0135915080821115610172578586fd5b5061017f8b828c016100d5565b9097509550610192905060408a016100b9565b93506101a060608a016100b9565b92506080890135915060a089013590509295985092959890939650565b60008284528282602086013780602084860101526020601f19601f85011685010190509392505050565b6001600160a01b0391909116815260200190565b600060c0825261020f60c083018a8c6101bd565b828103602084015261022281898b6101bd565b6001600160a01b03978816604085015295909616606083015250608081019290925260a0909101529594505050505056fe608060405261012c6002553480156200001757600080fd5b50604051620020ed380380620020ed8339810160408190526200003a916200021b565b6001600e5585516200005490600f906020890190620000ad565b5084516200006a906010906020880190620000ad565b50601180546001600160a01b039586166001600160a01b0319918216179091556012805494909516931692909217909255601491909155601355506200030c9050565b828054620000bb90620002b9565b90600052602060002090601f016020900481019282620000df57600085556200012a565b82601f10620000fa57805160ff19168380011785556200012a565b828001600101855582156200012a579182015b828111156200012a5782518255916020019190600101906200010d565b50620001389291506200013c565b5090565b5b808211156200013857600081556001016200013d565b80516001600160a01b03811681146200016b57600080fd5b919050565b600082601f83011262000181578081fd5b81516001600160401b03808211156200019e576200019e620002f6565b6040516020601f8401601f1916820181018381118382101715620001c657620001c6620002f6565b6040528382528584018101871015620001dd578485fd5b8492505b83831015620002005785830181015182840182015291820191620001e1565b838311156200021157848185840101525b5095945050505050565b60008060008060008060c0878903121562000234578182fd5b86516001600160401b03808211156200024b578384fd5b620002598a838b0162000170565b975060208901519150808211156200026f578384fd5b506200027e89828a0162000170565b9550506200028f6040880162000153565b93506200029f6060880162000153565b92506080870151915060a087015190509295509295509295565b600281046001821680620002ce57607f821691505b60208210811415620002f057634e487b7160e01b600052602260045260246000fd5b50919050565b634e487b7160e01b600052604160045260246000fd5b611dd1806200031c6000396000f3fe608060405234801561001057600080fd5b50600436106102635760003560e01c80635d72424f11610156578063a9059cbb116100d3578063bedf77a611610097578063e5a6b10f11610071578063e5a6b10f146104c9578063f8ee1a3e146104d1578063fcb92401146104d957610263565b8063bedf77a61461049b578063dd62ed3e146104ae578063e19d64d1146104c157610263565b8063a9059cbb1461045d578063b2b2e71214610470578063b92d5d3214610478578063bd30558e1461048b578063be8a60191461049357610263565b80637e348b7d1161011a5780637e348b7d146104145780639250c2921461042757806395d89b411461043a57806399fcb31f14610442578063a457c2d71461044a57610263565b80635d72424f146103a557806365674dfc146103b857806366348eab146103d957806370a08231146103ee5780637a8312dd1461040157610263565b806323b872dd116101e457806337e33092116101a857806337e3309214610372578063395093511461037a5780634aad55e21461038d578063507ba1dc146103955780635d2c62a91461039d57610263565b806323b872dd146103325780632565b159146103455780632768f72e1461034d5780632fa27fae14610355578063313ce5671461035d57610263565b8063127e14a41161022b578063127e14a4146102d657806313176a40146102e957806315e5a1e5146102fe57806318160ddd146103065780631feeb4ee1461031b57610263565b806301e51e971461026857806306fdde031461027d578063095ea7b31461029b5780630e0e65d2146102bb57806311373f85146102ce575b600080fd5b61027b6102763660046117d7565b6104ec565b005b61028561053a565b60405161029291906118f1565b60405180910390f35b6102ae6102a93660046117d7565b6105c8565b60405161029291906118e6565b61027b6102c9366004611749565b6105e5565b61027b61061b565b61027b6102e4366004611749565b61064f565b6102f16106ad565b604051610292919061186c565b61027b6106bc565b61030e6106ee565b6040516102929190611c75565b6103236106f4565b60405161029293929190611c8c565b6102ae61034036600461179c565b61076b565b61030e610802565b61030e610808565b61030e61080e565b610365610814565b6040516102929190611ca2565b61030e610819565b6102ae6103883660046117d7565b61081f565b61030e61086e565b61030e610874565b61027b61087a565b6102f16103b3366004611820565b6108ac565b6103cb6103c6366004611749565b6108d6565b604051610292929190611c7e565b6103e16108ef565b6040516102929190611899565b61030e6103fc366004611749565b610955565b6103cb61040f366004611749565b610a6d565b61027b6104223660046117d7565b610a86565b61030e610435366004611820565b610aba565b610285610aef565b61027b610afc565b6102ae6104583660046117d7565b610b2e565b6102ae61046b3660046117d7565b610ba9565b61027b610bbd565b61027b6104863660046117d7565b610bef565b61030e610c23565b61030e610c29565b61027b6104a9366004611749565b610c2f565b61030e6104bc36600461176a565b610d3b565b6103e1610d66565b6102f1610dca565b61030e610dd9565b6102f16104e7366004611820565b610ddf565b6011546001600160a01b0316331461051f5760405162461bcd60e51b815260040161051690611bc2565b60405180910390fd5b601254610536906001600160a01b03168383610def565b5050565b600f805461054790611d4a565b80601f016020809104026020016040519081016040528092919081815260200182805461057390611d4a565b80156105c05780601f10610595576101008083540402835291602001916105c0565b820191906000526020600020905b8154815290600101906020018083116105a357829003601f168201915b505050505081565b60006105dc6105d5610ef1565b8484610ef5565b50600192915050565b6011546001600160a01b0316331461060f5760405162461bcd60e51b815260040161051690611bc2565b61061881610fa9565b50565b6011546001600160a01b031633146106455760405162461bcd60e51b815260040161051690611bc2565b61064d611080565b565b6011546001600160a01b031633146106795760405162461bcd60e51b815260040161051690611bc2565b6001600160a01b038082166000908152600b602052604090205460125490916106a491168383610def565b61053682611117565b6011546001600160a01b031681565b6011546001600160a01b031633146106e65760405162461bcd60e51b815260040161051690611bc2565b61064d6111e2565b600c5490565b60008060008061070342610aba565b90506000600354600254836107189190611ce8565b6107229190611cb0565b61072c9042611d07565b905060008160025461073e9190611d07565b90506003546000141561075e576000806000955095509550505050610766565b919450925090505b909192565b60006107788484846111e8565b6001600160a01b038416600090815260016020526040812081610799610ef1565b6001600160a01b03166001600160a01b03168152602001908152602001600020549050828110156107dc5760405162461bcd60e51b815260040161051690611aa4565b6107f7856107e8610ef1565b6107f28685611d07565b610ef5565b506001949350505050565b60135481565b60075481565b60025481565b601290565b60065481565b60006105dc61082c610ef1565b84846001600061083a610ef1565b6001600160a01b03908116825260208083019390935260409182016000908120918b16815292529020546107f29190611cb0565b60085481565b60045481565b6011546001600160a01b031633146108a45760405162461bcd60e51b815260040161051690611bc2565b61064d611315565b600a81815481106108bc57600080fd5b6000918252602090912001546001600160a01b0316905081565b600d602052600090815260409020805460019091015482565b60606000600a80548060200260200160405190810160405280929190818152602001828054801561094957602002820191906000526020600020905b81546001600160a01b0316815260019091019060200180831161092b575b50939550505050505090565b6001600160a01b0381166000908152600b6020526040812060010154819061097c90610aba565b6001600160a01b0384166000908152600d6020526040812060010154919250906109a590610aba565b905060006109b242610aba565b6001600160a01b0386166000908152602081905260408120549192506109d88584611d07565b1115610a04576001600160a01b0386166000908152600b6020526040902054610a019082611cb0565b90505b6000610a108484611d07565b1115610a62576001600160a01b0386166000908152600d60205260409020548111610a3c576000610a5f565b6001600160a01b0386166000908152600d6020526040902054610a5f9082611d07565b90505b93505050505b919050565b600b602052600090815260409020805460019091015482565b6011546001600160a01b03163314610ab05760405162461bcd60e51b815260040161051690611bc2565b61053682826113b6565b6000600354821115610ae757600254600354610ad69084611d07565b610ae09190611cc8565b9050610a68565b506000919050565b6010805461054790611d4a565b6011546001600160a01b03163314610b265760405162461bcd60e51b815260040161051690611bc2565b61064d6114d3565b60008060016000610b3d610ef1565b6001600160a01b0390811682526020808301939093526040918201600090812091881681529252902054905082811015610b895760405162461bcd60e51b815260040161051690611bf9565b610b9f610b94610ef1565b856107f28685611d07565b5060019392505050565b60006105dc610bb6610ef1565b84846111e8565b6011546001600160a01b03163314610be75760405162461bcd60e51b815260040161051690611bc2565b61064d6114e6565b6011546001600160a01b03163314610c195760405162461bcd60e51b815260040161051690611bc2565b61053682826114f9565b60145481565b60035481565b6011546001600160a01b03163314610c595760405162461bcd60e51b815260040161051690611bc2565b6000610c636106ee565b11610c805760405162461bcd60e51b815260040161051690611a5d565b6012546040516370a0823160e01b81526000916001600160a01b0316906370a0823190610cb190309060040161186c565b60206040518083038186803b158015610cc957600080fd5b505afa158015610cdd573d6000803e3d6000fd5b505050506040513d601f19601f82011682018060405250810190610d019190611838565b90506000610d0d6106ee565b610d1684610955565b610d209084611ce8565b610d2a9190611cc8565b9050610d3683826115c1565b505050565b6001600160a01b03918216600090815260016020908152604080832093909416825291909152205490565b606060006009805480602002602001604051908101604052809291908181526020018280548015610949576020028201919060005260206000209081546001600160a01b0316815260019091019060200180831161092b5750939550505050505090565b6012546001600160a01b031681565b60055481565b600981815481106108bc57600080fd5b600080846001600160a01b031663a9059cbb8585604051602401610e14929190611880565b6040516020818303038152906040529060e01b6020820180517bffffffffffffffffffffffffffffffffffffffffffffffffffffffff8381831617835250505050604051610e629190611850565b6000604051808303816000865af19150503d8060008114610e9f576040519150601f19603f3d011682016040523d82523d6000602084013e610ea4565b606091505b5091509150818015610ece575080511580610ece575080806020019051810190610ece9190611800565b610eea5760405162461bcd60e51b815260040161051690611b75565b5050505050565b3390565b6001600160a01b038316610f1b5760405162461bcd60e51b815260040161051690611b31565b6001600160a01b038216610f415760405162461bcd60e51b815260040161051690611967565b6001600160a01b0380841660008181526001602090815260408083209487168084529490915290819020849055517f8c5be1e5ebec7d5bd14f71427d1e84f3dd0314c0f7b2291e5b200ac8c7c3b92590610f9c908590611c75565b60405180910390a3505050565b6001600160a01b0381166000908152600b602052604081206001810154909190610fd290610aba565b90506000610fdf42610aba565b90506000610fed8383611d07565b118015610ffa5750825415155b1561107a57825460008085556001600160a01b0386168152602081905260408120805483929061102b908490611cb0565b909155505060405130906001600160a01b038716907f21d06a8a4f8be1ad09d9fcec8304a99826528ae79f66bcd05d6bcc0f955236ec90611070908590600090611c7e565b60405180910390a3505b50505050565b600061108d600554610aba565b9050600061109a42610aba565b905060006110a88383611d07565b1115610536576000600454905080600c60008282546110c79190611cb0565b909155505060006004556110d96114d3565b7f44eb106e24f3f3521988bb6cdc7401676b06dcd383005355fdde15d0040f2e53428260405161110a929190611c7e565b60405180910390a1505050565b6001600160a01b0381166000908152600d60205260408120600181015490919061114090610aba565b9050600061114d42610aba565b9050600061115b8383611d07565b1180156111685750825415155b61117157600080fd5b825460008085556001600160a01b0386168152602081905260408120805483929061119d908490611d07565b909155505060405130906001600160a01b038716907f8c19f3869444ba9d10a5e282e15f42b3367e61cf98ae8fd9bad2b8c438529fb790611070908590600090611c7e565b42600355565b6001600160a01b03831661120e5760405162461bcd60e51b815260040161051690611aec565b6001600160a01b0382166112345760405162461bcd60e51b815260040161051690611924565b61123f838383610d36565b6001600160a01b038316600090815260208190526040902054818110156112785760405162461bcd60e51b8152600401610516906119e0565b6112828282611d07565b6001600160a01b0380861660009081526020819052604080822093909355908516815290812080548492906112b8908490611cb0565b92505081905550826001600160a01b0316846001600160a01b03167fddf252ad1be2c89b69c2b068fc378daa952ba7f163c4a11628f55a4df523b3ef846040516113029190611c75565b60405180910390a361107a848484610d36565b6000611322600754610aba565b9050600061132f42610aba565b9050600061133d8383611d07565b1161135a5760405162461bcd60e51b815260040161051690611a26565b6000600654905080600c60008282546113739190611d07565b909155505060006006556113856114e6565b7f3420eb1c09d76e80e36db2c7c0fa9f9ff79dcc9bc995f8c26781f47af1423b2d428260405161110a929190611c7e565b6001600160a01b0382166000908152600b602052604090206001015461142257600980546001810182556000919091527f6e1540171b6c0c960b71a7020d9f60077f6af931a8bbf590da0223dacf75c7af0180546001600160a01b0319166001600160a01b0384161790555b61142a611080565b61143382610fa9565b6001600160a01b0382166000908152600b60205260409020546114568282611cb0565b6001600160a01b0384166000908152600b60205260408120918255426001909201919091556004805484929061148d908490611cb0565b90915550504260055560405130906001600160a01b038516907f6f1ecdc30d0cfab97071878ab0715532ce600565b12d149d7765335c7095168990610f9c908690611c75565b60608051610536906009906080906116b8565b6060805161053690600a906080906116b8565b6001600160a01b03821661151f5760405162461bcd60e51b815260040161051690611c3e565b61152b60008383610d36565b80600c600082825461153d9190611cb0565b90915550506001600160a01b0382166000908152602081905260408120805483929061156a908490611cb0565b90915550506040516001600160a01b038316906000907fddf252ad1be2c89b69c2b068fc378daa952ba7f163c4a11628f55a4df523b3ef906115ad908590611c75565b60405180910390a361053660008383610d36565b6001600160a01b0382166000908152600d602052604090206001015461162d57600a80546001810182556000919091527fc65a7bb8d6351c1cf70c95a316cc6a92839c986682d98bc35f958f4883f9d2a80180546001600160a01b0319166001600160a01b0384161790555b6001600160a01b0382166000908152600d602052604090205461164f83610955565b6116598383611cb0565b11156116775760405162461bcd60e51b8152600401610516906119a9565b6116818282611cb0565b6001600160a01b0384166000908152600d60205260408120918255426001909201919091556004805484929061148d908490611cb0565b82805482825590600052602060002090810192821561170d579160200282015b8281111561170d57825182546001600160a01b0319166001600160a01b039091161782556020909201916001909101906116d8565b5061171992915061171d565b5090565b5b80821115611719576000815560010161171e565b80356001600160a01b0381168114610a6857600080fd5b60006020828403121561175a578081fd5b61176382611732565b9392505050565b6000806040838503121561177c578081fd5b61178583611732565b915061179360208401611732565b90509250929050565b6000806000606084860312156117b0578081fd5b6117b984611732565b92506117c760208501611732565b9150604084013590509250925092565b600080604083850312156117e9578182fd5b6117f283611732565b946020939093013593505050565b600060208284031215611811578081fd5b81518015158114611763578182fd5b600060208284031215611831578081fd5b5035919050565b600060208284031215611849578081fd5b5051919050565b60008251611862818460208701611d1e565b9190910192915050565b6001600160a01b0391909116815260200190565b6001600160a01b03929092168252602082015260400190565b6020808252825182820181905260009190848201906040850190845b818110156118da5783516001600160a01b0316835292840192918401916001016118b5565b50909695505050505050565b901515815260200190565b6000602082528251806020840152611910816040850160208701611d1e565b601f01601f19169190910160400192915050565b60208082526023908201527f45524332303a207472616e7366657220746f20746865207a65726f206164647260408201526265737360e81b606082015260800190565b60208082526022908201527f45524332303a20617070726f766520746f20746865207a65726f206164647265604082015261737360f01b606082015260800190565b6020808252601f908201527f556e6f2052653a207265717565737420616d6f756e74206f766572666c6f7700604082015260600190565b60208082526026908201527f45524332303a207472616e7366657220616d6f756e7420657863656564732062604082015265616c616e636560d01b606082015260800190565b60208082526017908201527f556e6f52653a20776974686472617720616c7265616479000000000000000000604082015260600190565b60208082526027908201527f556e6f52653a2054686572652773206e6f2072656d61696e696e6720696e20746040820152661a19481c1bdbdb60ca1b606082015260800190565b60208082526028908201527f45524332303a207472616e7366657220616d6f756e74206578636565647320616040820152676c6c6f77616e636560c01b606082015260800190565b60208082526025908201527f45524332303a207472616e736665722066726f6d20746865207a65726f206164604082015264647265737360d81b606082015260800190565b60208082526024908201527f45524332303a20617070726f76652066726f6d20746865207a65726f206164646040820152637265737360e01b606082015260800190565b6020808252602d908201527f5472616e7366657248656c7065723a3a736166655472616e736665723a20747260408201526c185b9cd9995c8819985a5b1959609a1b606082015260800190565b60208082526019908201527f556e6f52653a205269736b506f6f6c20466f7262696464656e00000000000000604082015260600190565b60208082526025908201527f45524332303a2064656372656173656420616c6c6f77616e63652062656c6f77604082015264207a65726f60d81b606082015260800190565b6020808252601f908201527f45524332303a206d696e7420746f20746865207a65726f206164647265737300604082015260600190565b90815260200190565b918252602082015260400190565b9283526020830191909152604082015260600190565b60ff91909116815260200190565b60008219821115611cc357611cc3611d85565b500190565b600082611ce357634e487b7160e01b81526012600452602481fd5b500490565b6000816000190483118215151615611d0257611d02611d85565b500290565b600082821015611d1957611d19611d85565b500390565b60005b83811015611d39578181015183820152602001611d21565b8381111561107a5750506000910152565b600281046001821680611d5e57607f821691505b60208210811415611d7f57634e487b7160e01b600052602260045260246000fd5b50919050565b634e487b7160e01b600052601160045260246000fdfea2646970667358221220cde66cf3860fcc6bb70c8a307160a42a141050c72b6ba6208e4cae7531a0a84c64736f6c63430008000033a264697066735822122000c0784661885e3683f8719c6b2176ffbb6ac7d0c80ef19729fcab1c8778e1ab64736f6c63430008000033",
  "devdoc": {
    "kind": "dev",
    "methods": {},
    "version": 1
  },
  "userdoc": {
    "kind": "user",
    "methods": {},
    "version": 1
  },
  "storageLayout": {
    "storage": [],
    "types": null
  }
}